{"abi":[{"type":"constructor","inputs":[{"name":"_pubkey","type":"bytes","internalType":"bytes"},{"name":"_algorithm","type":"uint8","internalType":"uint8"}],"stateMutability":"nonpayable"},{"type":"receive","stateMutability":"payable"},{"type":"function","name":"derivePQAddress","inputs":[{"name":"pubkey","type":"bytes","internalType":"bytes"}],"outputs":[{"name":"","type":"address","internalType":"address"}],"stateMutability":"pure"},{"type":"function","name":"execute","inputs":[{"name":"target","type":"address","internalType":"address"},{"name":"value","type":"uint256","internalType":"uint256"},{"name":"data","type":"bytes","internalType":"bytes"},{"name":"_nonce","type":"uint256","internalType":"uint256"},{"name":"signature","type":"bytes","internalType":"bytes"}],"outputs":[],"stateMutability":"nonpayable"},{"type":"function","name":"isValidSignature","inputs":[{"name":"message","type":"bytes","internalType":"bytes"},{"name":"signature","type":"bytes","internalType":"bytes"}],"outputs":[{"name":"","type":"bool","internalType":"bool"}],"stateMutability":"view"},{"type":"function","name":"nonce","inputs":[],"outputs":[{"name":"","type":"uint256","internalType":"uint256"}],"stateMutability":"view"},{"type":"function","name":"owner","inputs":[],"outputs":[{"name":"","type":"address","internalType":"address"}],"stateMutability":"view"},{"type":"function","name":"pqAlgorithm","inputs":[],"outputs":[{"name":"","type":"uint8","internalType":"uint8"}],"stateMutability":"view"},{"type":"function","name":"pqPublicKey","inputs":[],"outputs":[{"name":"","type":"bytes","internalType":"bytes"}],"stateMutability":"view"},{"type":"event","name":"PQAccountCreated","inputs":[{"name":"account","type":"address","indexed":true,"internalType":"address"},{"name":"algorithm","type":"uint8","indexed":false,"internalType":"uint8"},{"name":"pubkeyHash","type":"bytes32","indexed":false,"internalType":"bytes32"}],"anonymous":false},{"type":"event","name":"PQTransactionExecuted","inputs":[{"name":"target","type":"address","indexed":true,"internalType":"address"},{"name":"value","type":"uint256","indexed":false,"internalType":"uint256"},{"name":"nonce","type":"uint256","indexed":false,"internalType":"uint256"}],"anonymous":false},{"type":"error","name":"ExecutionFailed","inputs":[]},{"type":"error","name":"InvalidNonce","inputs":[]},{"type":"error","name":"InvalidSignature","inputs":[]},{"type":"error","name":"NotOwner","inputs":[]}],"bytecode":{"object":"0x608060405234801561000f575f5ffd5b506040516115ef3803806115ef8339818101604052810190610031919061029b565b815f908161003f9190610516565b508060015f6101000a81548160ff021916908360ff1602179055506100698261010660201b60201c565b60035f6101000a81548173ffffffffffffffffffffffffffffffffffffffff021916908373ffffffffffffffffffffffffffffffffffffffff1602179055503073ffffffffffffffffffffffffffffffffffffffff167fdd07cd7760782c1d8e37557a473b0dca3af0fc401c65061a2b46629dce4933958284805190602001206040516100f792919061060c565b60405180910390a25050610633565b5f81805190602001205f1c9050919050565b5f604051905090565b5f5ffd5b5f5ffd5b5f5ffd5b5f5ffd5b5f601f19601f8301169050919050565b7f4e487b71000000000000000000000000000000000000000000000000000000005f52604160045260245ffd5b61017782610131565b810181811067ffffffffffffffff8211171561019657610195610141565b5b80604052505050565b5f6101a8610118565b90506101b4828261016e565b919050565b5f67ffffffffffffffff8211156101d3576101d2610141565b5b6101dc82610131565b9050602081019050919050565b8281835e5f83830152505050565b5f610209610204846101b9565b61019f565b9050828152602081018484840111156102255761022461012d565b5b6102308482856101e9565b509392505050565b5f82601f83011261024c5761024b610129565b5b815161025c8482602086016101f7565b91505092915050565b5f60ff82169050919050565b61027a81610265565b8114610284575f5ffd5b50565b5f8151905061029581610271565b92915050565b5f5f604083850312156102b1576102b0610121565b5b5f83015167ffffffffffffffff8111156102ce576102cd610125565b5b6102da85828601610238565b92505060206102eb85828601610287565b9150509250929050565b5f81519050919050565b7f4e487b71000000000000000000000000000000000000000000000000000000005f52602260045260245ffd5b5f600282049050600182168061034357607f821691505b602082108103610356576103556102ff565b5b50919050565b5f819050815f5260205f209050919050565b5f6020601f8301049050919050565b5f82821b905092915050565b5f600883026103b87fffffffffffffffffffffffffffffffffffffffffffffffffffffffffffffffff8261037d565b6103c2868361037d565b95508019841693508086168417925050509392505050565b5f819050919050565b5f819050919050565b5f6104066104016103fc846103da565b6103e3565b6103da565b9050919050565b5f819050919050565b61041f836103ec565b61043361042b8261040d565b848454610389565b825550505050565b5f5f905090565b61044a61043b565b610455818484610416565b505050565b5f5b8281101561047b576104705f828401610442565b60018101905061045c565b505050565b601f8211156104ce57828211156104cd5761049a8161035c565b6104a38361036e565b6104ac8561036e565b60208610156104b9575f90505b8083016104c88284038261045a565b505050505b5b505050565b5f82821c905092915050565b5f6104ee5f19846008026104d3565b1980831691505092915050565b5f61050683836104df565b9150826002028217905092915050565b61051f826102f5565b67ffffffffffffffff81111561053857610537610141565b5b610542825461032c565b61054d828285610480565b5f60209050601f83116001811461057e575f841561056c578287015190505b61057685826104fb565b8655506105dd565b601f19841661058c8661035c565b5f5b828110156105b35784890151825560018201915060208501945060208101905061058e565b868310156105d057848901516105cc601f8916826104df565b8355505b6001600288020188555050505b505050505050565b6105ee81610265565b82525050565b5f819050919050565b610606816105f4565b82525050565b5f60408201905061061f5f8301856105e5565b61062c60208301846105fd565b9392505050565b610faf806106405f395ff3fe608060405260043610610073575f3560e01c8063affed0e01161004d578063affed0e01461010e578063c7b0c61a14610138578063cc79566f14610162578063d2c88a7c1461019e5761007a565b806320c13b0b1461007e5780638da5cb5b146100ba57806398c577f9146100e45761007a565b3661007a57005b5f5ffd5b348015610089575f5ffd5b506100a4600480360381019061009f91906106db565b6101c6565b6040516100b19190610773565b60405180910390f35b3480156100c5575f5ffd5b506100ce6102b9565b6040516100db91906107cb565b60405180910390f35b3480156100ef575f5ffd5b506100f86102de565b6040516101059190610854565b60405180910390f35b348015610119575f5ffd5b50610122610369565b60405161012f919061088c565b60405180910390f35b348015610143575f5ffd5b5061014c61036f565b60405161015991906108c0565b60405180910390f35b34801561016d575f5ffd5b5061018860048036038101906101839190610a01565b610381565b60405161019591906107cb565b60405180910390f35b3480156101a9575f5ffd5b506101c460048036038101906101bf9190610a9c565b610393565b005b5f5f5f73030000000000000000000000000000000000000073ffffffffffffffffffffffffffffffffffffffff165f86868a8a60015f9054906101000a900460ff1660405160200161021d96959493929190610c6f565b6040516020818303038152906040526040516102399190610d05565b5f60405180830381855afa9150503d805f8114610271576040519150601f19603f3d011682016040523d82523d5f602084013e610276565b606091505b5091509150811580610289575060208151105b15610298575f925050506102b1565b808060200190518101906102ac9190610d45565b925050505b949350505050565b60035f9054906101000a900473ffffffffffffffffffffffffffffffffffffffff1681565b5f80546102ea90610b80565b80601f016020809104026020016040519081016040528092919081815260200182805461031690610b80565b80156103615780601f1061033857610100808354040283529160200191610361565b820191905f5260205f20905b81548152906001019060200180831161034457829003601f168201915b505050505081565b60025481565b60015f9054906101000a900460ff1681565b5f81805190602001205f1c9050919050565b60025483146103ce576040517f756688fe00000000000000000000000000000000000000000000000000000000815260040160405180910390fd5b5f878787876040516103e1929190610d94565b604051809103902086466040516020016103ff959493929190610e3a565b60405160208183030381529060405290505f5f73030000000000000000000000000000000000000073ffffffffffffffffffffffffffffffffffffffff165f86868660015f9054906101000a900460ff16604051602001610464959493929190610e98565b6040516020818303038152906040526040516104809190610d05565b5f60405180830381855afa9150503d805f81146104b8576040519150601f19603f3d011682016040523d82523d5f602084013e6104bd565b606091505b50915091508115806104d0575060208151105b15610507576040517f8baa579f00000000000000000000000000000000000000000000000000000000815260040160405180910390fd5b5f8180602001905181019061051c9190610d45565b905080610555576040517f8baa579f00000000000000000000000000000000000000000000000000000000815260040160405180910390fd5b6001876105629190610f1f565b6002819055505f8b73ffffffffffffffffffffffffffffffffffffffff168b8b8b604051610591929190610d94565b5f6040518083038185875af1925050503d805f81146105cb576040519150601f19603f3d011682016040523d82523d5f602084013e6105d0565b606091505b505090508061060b576040517facfdb44400000000000000000000000000000000000000000000000000000000815260040160405180910390fd5b8b73ffffffffffffffffffffffffffffffffffffffff167fc7bc34e16c2adf5b42f818369c96f4ed5ca0a3bd1393d69694afa70d14c0a2a68c8a604051610653929190610f52565b60405180910390a2505050505050505050505050565b5f604051905090565b5f5ffd5b5f5ffd5b5f5ffd5b5f5ffd5b5f5ffd5b5f5f83601f84011261069b5761069a61067a565b5b8235905067ffffffffffffffff8111156106b8576106b761067e565b5b6020830191508360018202830111156106d4576106d3610682565b5b9250929050565b5f5f5f5f604085870312156106f3576106f2610672565b5b5f85013567ffffffffffffffff8111156107105761070f610676565b5b61071c87828801610686565b9450945050602085013567ffffffffffffffff81111561073f5761073e610676565b5b61074b87828801610686565b925092505092959194509250565b5f8115159050919050565b61076d81610759565b82525050565b5f6020820190506107865f830184610764565b92915050565b5f73ffffffffffffffffffffffffffffffffffffffff82169050919050565b5f6107b58261078c565b9050919050565b6107c5816107ab565b82525050565b5f6020820190506107de5f8301846107bc565b92915050565b5f81519050919050565b5f82825260208201905092915050565b8281835e5f83830152505050565b5f601f19601f8301169050919050565b5f610826826107e4565b61083081856107ee565b93506108408185602086016107fe565b6108498161080c565b840191505092915050565b5f6020820190508181035f83015261086c818461081c565b905092915050565b5f819050919050565b61088681610874565b82525050565b5f60208201905061089f5f83018461087d565b92915050565b5f60ff82169050919050565b6108ba816108a5565b82525050565b5f6020820190506108d35f8301846108b1565b92915050565b5f5ffd5b7f4e487b71000000000000000000000000000000000000000000000000000000005f52604160045260245ffd5b6109138261080c565b810181811067ffffffffffffffff82111715610932576109316108dd565b5b80604052505050565b5f610944610669565b9050610950828261090a565b919050565b5f67ffffffffffffffff82111561096f5761096e6108dd565b5b6109788261080c565b9050602081019050919050565b828183375f83830152505050565b5f6109a56109a084610955565b61093b565b9050828152602081018484840111156109c1576109c06108d9565b5b6109cc848285610985565b509392505050565b5f82601f8301126109e8576109e761067a565b5b81356109f8848260208601610993565b91505092915050565b5f60208284031215610a1657610a15610672565b5b5f82013567ffffffffffffffff811115610a3357610a32610676565b5b610a3f848285016109d4565b91505092915050565b610a51816107ab565b8114610a5b575f5ffd5b50565b5f81359050610a6c81610a48565b92915050565b610a7b81610874565b8114610a85575f5ffd5b50565b5f81359050610a9681610a72565b92915050565b5f5f5f5f5f5f5f60a0888a031215610ab757610ab6610672565b5b5f610ac48a828b01610a5e565b9750506020610ad58a828b01610a88565b965050604088013567ffffffffffffffff811115610af657610af5610676565b5b610b028a828b01610686565b95509550506060610b158a828b01610a88565b935050608088013567ffffffffffffffff811115610b3657610b35610676565b5b610b428a828b01610686565b925092505092959891949750929550565b7f4e487b71000000000000000000000000000000000000000000000000000000005f52602260045260245ffd5b5f6002820490506001821680610b9757607f821691505b602082108103610baa57610ba9610b53565b5b50919050565b5f819050815f5260205f209050919050565b5f8154610bce81610b80565b610bd881866107ee565b9450600182165f8114610bf25760018114610c0857610c3a565b60ff198316865281151560200286019350610c3a565b610c1185610bb0565b5f5b83811015610c3257815481890152600182019150602081019050610c13565b808801955050505b50505092915050565b5f610c4e83856107ee565b9350610c5b838584610985565b610c648361080c565b840190509392505050565b5f6080820190508181035f830152610c878189610bc2565b90508181036020830152610c9c818789610c43565b90508181036040830152610cb1818587610c43565b9050610cc060608301846108b1565b979650505050505050565b5f81905092915050565b5f610cdf826107e4565b610ce98185610ccb565b9350610cf98185602086016107fe565b80840191505092915050565b5f610d108284610cd5565b915081905092915050565b610d2481610759565b8114610d2e575f5ffd5b50565b5f81519050610d3f81610d1b565b92915050565b5f60208284031215610d5a57610d59610672565b5b5f610d6784828501610d31565b91505092915050565b5f610d7b8385610ccb565b9350610d88838584610985565b82840190509392505050565b5f610da0828486610d70565b91508190509392505050565b5f8160601b9050919050565b5f610dc282610dac565b9050919050565b5f610dd382610db8565b9050919050565b610deb610de6826107ab565b610dc9565b82525050565b5f819050919050565b610e0b610e0682610874565b610df1565b82525050565b5f819050919050565b5f819050919050565b610e34610e2f82610e11565b610e1a565b82525050565b5f610e458288610dda565b601482019150610e558287610dfa565b602082019150610e658286610e23565b602082019150610e758285610dfa565b602082019150610e858284610dfa565b6020820191508190509695505050505050565b5f6080820190508181035f830152610eb08188610bc2565b90508181036020830152610ec5818688610c43565b90508181036040830152610ed9818561081c565b9050610ee860608301846108b1565b9695505050505050565b7f4e487b71000000000000000000000000000000000000000000000000000000005f52601160045260245ffd5b5f610f2982610874565b9150610f3483610874565b9250828201905080821115610f4c57610f4b610ef2565b5b92915050565b5f604082019050610f655f83018561087d565b610f72602083018461087d565b939250505056fea2646970667358221220c3391bdda63604fe47cbcc4a4aa9c86a85dbe5e1bd2da0d3b8d73295a2f024ff64736f6c63430008210033","linkReferences":{}},"methodIdentifiers":{"derivePQAddress(bytes)":"cc79566f","execute(address,uint256,bytes,uint256,bytes)":"d2c88a7c","isValidSignature(bytes,bytes)":"20c13b0b","nonce()":"affed0e0","owner()":"8da5cb5b","pqAlgorithm()":"c7b0c61a","pqPublicKey()":"98c577f9"},"id":1}