{"abi":[{"type":"function","name":"batchVerify","inputs":[{"name":"pubkeys","type":"bytes[]","internalType":"bytes[]"},{"name":"signatures","type":"bytes[]","internalType":"bytes[]"},{"name":"messages","type":"bytes[]","internalType":"bytes[]"},{"name":"algorithms","type":"uint8[]","internalType":"uint8[]"}],"outputs":[{"name":"results","type":"bool[]","internalType":"bool[]"}],"stateMutability":"view"},{"type":"function","name":"verifyAndLog","inputs":[{"name":"pubkey","type":"bytes","internalType":"bytes"},{"name":"signature","type":"bytes","internalType":"bytes"},{"name":"message","type":"bytes","internalType":"bytes"},{"name":"algorithm","type":"uint8","internalType":"uint8"}],"outputs":[{"name":"valid","type":"bool","internalType":"bool"}],"stateMutability":"nonpayable"},{"type":"event","name":"VerificationResult","inputs":[{"name":"valid","type":"bool","indexed":false,"internalType":"bool"},{"name":"gasUsed","type":"uint256","indexed":false,"internalType":"uint256"}],"anonymous":false}],"bytecode":{"object":"0x6080604052348015600e575f5ffd5b50610c368061001c5f395ff3fe608060405234801561000f575f5ffd5b5060043610610034575f3560e01c80630d7d34ab146100385780638ab6cdd914610068575b5f5ffd5b610052600480360381019061004d9190610516565b610098565b60405161005f91906105f4565b60405180910390f35b610082600480360381019061007d91906106b7565b61020b565b60405161008f9190610852565b60405180910390f35b5f5f5a90505f5f73030000000000000000000000000000000000000073ffffffffffffffffffffffffffffffffffffffff168b8b8b8b8b8b8b6040516020016100e797969594939291906108db565b604051602081830303815290604052604051610103919061098b565b5f60405180830381855afa9150503d805f811461013b576040519150601f19603f3d011682016040523d82523d5f602084013e610140565b606091505b50915091505f5a8461015291906109d7565b9050821580610162575060208251105b156101ac577fb431871597df53686cbf63be4292271b4fc926d64eea3e320cdefecfbe1dd9ba5f82604051610198929190610a19565b60405180910390a15f945050505050610200565b818060200190518101906101c09190610a6a565b94507fb431871597df53686cbf63be4292271b4fc926d64eea3e320cdefecfbe1dd9ba85826040516101f3929190610a19565b60405180910390a1505050505b979650505050505050565b6060868690508989905014801561022757508484905087879050145b801561023857508282905085859050145b610277576040517f08c379a000000000000000000000000000000000000000000000000000000000815260040161026e90610aef565b60405180910390fd5b8888905067ffffffffffffffff81111561029457610293610b0d565b5b6040519080825280602002602001820160405280156102c25781602001602082028036833780820191505090505b5090505f5f90505b8989905081101561046a575f5f73030000000000000000000000000000000000000073ffffffffffffffffffffffffffffffffffffffff168c8c8581811061031557610314610b3a565b5b90506020028101906103279190610b73565b8c8c8781811061033a57610339610b3a565b5b905060200281019061034c9190610b73565b8c8c8981811061035f5761035e610b3a565b5b90506020028101906103719190610b73565b8c8c8b81811061038457610383610b3a565b5b90506020020160208101906103999190610bd5565b6040516020016103af97969594939291906108db565b6040516020818303038152906040526040516103cb919061098b565b5f60405180830381855afa9150503d805f8114610403576040519150601f19603f3d011682016040523d82523d5f602084013e610408565b606091505b509150915081801561041c57506020815110155b1561045b57808060200190518101906104359190610a6a565b84848151811061044857610447610b3a565b5b6020026020010190151590811515815250505b505080806001019150506102ca565b5098975050505050505050565b5f5ffd5b5f5ffd5b5f5ffd5b5f5ffd5b5f5ffd5b5f5f83601f8401126104a05761049f61047f565b5b8235905067ffffffffffffffff8111156104bd576104bc610483565b5b6020830191508360018202830111156104d9576104d8610487565b5b9250929050565b5f60ff82169050919050565b6104f5816104e0565b81146104ff575f5ffd5b50565b5f81359050610510816104ec565b92915050565b5f5f5f5f5f5f5f6080888a03121561053157610530610477565b5b5f88013567ffffffffffffffff81111561054e5761054d61047b565b5b61055a8a828b0161048b565b9750975050602088013567ffffffffffffffff81111561057d5761057c61047b565b5b6105898a828b0161048b565b9550955050604088013567ffffffffffffffff8111156105ac576105ab61047b565b5b6105b88a828b0161048b565b935093505060606105cb8a828b01610502565b91505092959891949750929550565b5f8115159050919050565b6105ee816105da565b82525050565b5f6020820190506106075f8301846105e5565b92915050565b5f5f83601f8401126106225761062161047f565b5b8235905067ffffffffffffffff81111561063f5761063e610483565b5b60208301915083602082028301111561065b5761065a610487565b5b9250929050565b5f5f83601f8401126106775761067661047f565b5b8235905067ffffffffffffffff81111561069457610693610483565b5b6020830191508360208202830111156106b0576106af610487565b5b9250929050565b5f5f5f5f5f5f5f5f6080898b0312156106d3576106d2610477565b5b5f89013567ffffffffffffffff8111156106f0576106ef61047b565b5b6106fc8b828c0161060d565b9850985050602089013567ffffffffffffffff81111561071f5761071e61047b565b5b61072b8b828c0161060d565b9650965050604089013567ffffffffffffffff81111561074e5761074d61047b565b5b61075a8b828c0161060d565b9450945050606089013567ffffffffffffffff81111561077d5761077c61047b565b5b6107898b828c01610662565b92509250509295985092959890939650565b5f81519050919050565b5f82825260208201905092915050565b5f819050602082019050919050565b6107cd816105da565b82525050565b5f6107de83836107c4565b60208301905092915050565b5f602082019050919050565b5f6108008261079b565b61080a81856107a5565b9350610815836107b5565b805f5b8381101561084557815161082c88826107d3565b9750610837836107ea565b925050600181019050610818565b5085935050505092915050565b5f6020820190508181035f83015261086a81846107f6565b905092915050565b5f82825260208201905092915050565b828183375f83830152505050565b5f601f19601f8301169050919050565b5f6108ab8385610872565b93506108b8838584610882565b6108c183610890565b840190509392505050565b6108d5816104e0565b82525050565b5f6080820190508181035f8301526108f481898b6108a0565b905081810360208301526109098187896108a0565b9050818103604083015261091e8185876108a0565b905061092d60608301846108cc565b98975050505050505050565b5f81519050919050565b5f81905092915050565b8281835e5f83830152505050565b5f61096582610939565b61096f8185610943565b935061097f81856020860161094d565b80840191505092915050565b5f610996828461095b565b915081905092915050565b5f819050919050565b7f4e487b71000000000000000000000000000000000000000000000000000000005f52601160045260245ffd5b5f6109e1826109a1565b91506109ec836109a1565b9250828203905081811115610a0457610a036109aa565b5b92915050565b610a13816109a1565b82525050565b5f604082019050610a2c5f8301856105e5565b610a396020830184610a0a565b9392505050565b610a49816105da565b8114610a53575f5ffd5b50565b5f81519050610a6481610a40565b92915050565b5f60208284031215610a7f57610a7e610477565b5b5f610a8c84828501610a56565b91505092915050565b5f82825260208201905092915050565b7f6172726179206c656e677468206d69736d6174636800000000000000000000005f82015250565b5f610ad9601583610a95565b9150610ae482610aa5565b602082019050919050565b5f6020820190508181035f830152610b0681610acd565b9050919050565b7f4e487b71000000000000000000000000000000000000000000000000000000005f52604160045260245ffd5b7f4e487b71000000000000000000000000000000000000000000000000000000005f52603260045260245ffd5b5f5ffd5b5f5ffd5b5f5ffd5b5f5f83356001602003843603038112610b8f57610b8e610b67565b5b80840192508235915067ffffffffffffffff821115610bb157610bb0610b6b565b5b602083019250600182023603831315610bcd57610bcc610b6f565b5b509250929050565b5f60208284031215610bea57610be9610477565b5b5f610bf784828501610502565b9150509291505056fea2646970667358221220ad91bf289e4fe56c818eda20daa281909e05e2a5119870b4d4aed48943a2356c64736f6c63430008210033","linkReferences":{}},"methodIdentifiers":{"batchVerify(bytes[],bytes[],bytes[],uint8[])":"8ab6cdd9","verifyAndLog(bytes,bytes,bytes,uint8)":"0d7d34ab"},"id":1}